:020000040800F2
:1000000000000220B9020008C1020008C502000871
:10001000390300083D0300088503000800000000C4
:10002000000000000000000000000000CD030008F8
:10003000D103000800000000D5030008E9150008FE
:10004000E9030008E9030008E9030008E9030008E0
:10005000E9030008E9030008E9030008E9030008D0
:10006000E9030008E9030008E9030008E9030008C0
:10007000E9030008E9030008E9030008E9030008B0
:10008000E9030008E9030008E9030008E9030008A0
:10009000E9030008E9030008E9030008E903000890
:1000A000E9030008E9030008E9030008E903000880
:1000B000E9030008E9030008E9030008E903000870
:1000C000E9030008E9030008E9030008E903000860
:1000D000E9030008E9030008E9030008E903000850
:1000E000E9030008E9030008E9030008E903000840
:1000F000E9030008E9030008E9030008E903000830
:10010000E9030008E9030008E9030008E90300081F
:10011000E9030008E9030008E9030008E90300080F
:10012000E9030008E9030008E9030008E9030008FF
:10013000E9030008E9030008E9030008E9030008EF
:10014000E9030008E9030008E9030008E9030008DF
:10015000E9030008E9030008E9030008E9030008CF
:10016000E9030008E9030008E9030008E9030008BF
:10017000E9030008E9030008E903000800000000A3
:10018000E9030008E903000800B583B001F0D6F8E0
:10019000384B394A1360394A136039490CE00A6810
:1001A0004B6801F10C04886803E01168196004339E
:1001B00004329842F9D82146324B9942EFD32E4B64
:1001C0001A68314B9A4204D12C4B1A682F4B9A4231
:1001D00000D0FEE7274B2E4A13602E4A13602E4BA9
:1001E0000AE0194651F8082B5B6802E00020106015
:1001F00004329A42FAD30B46284A9342F1D3244B55
:100200001B6813B9234B1B6803B1FEE701F03EFAEC
:10021000694601A801F022F8214C224B1C1BA410B6
:10022000002504E01E4B53F8253098470135AC42B9
:10023000F8DC1D4C1D4B1C1BA410002504E01A4BC0
:1002400053F8253098470135AC42F8DC0099019805
:1002500001F024FA0546164C164B1C1BA41004E0B2
:10026000013C134B53F824309847002CF8DC284607
:1002700000F0C6FFBABADECA0000002074000020F9
:10028000EC030008040400087856341232547698BF
:10029000780000201801002004040008140400085D
:1002A00014040008140400081404000814040008CE
:1002B000140400081404000808B5FFF765FF00BF28
:1002C00000BEFEE71EF0040F0CBFEFF30880EFF353
:1002D00009807146414A10472DE9F04182B0044639
:1002E0008846134B5E6B9F6B9D6A1B6B13F0020F6E
:1002F0000DD00F4BDB6A002B09DA4BF6AB6101F036
:10030000A1F820B14FF00042094BDA620CE0094835
:1003100000F0B6FFCDF800803B4632462946204625
:1003200001F018F800BEFEE702B0BDE8F08100BFA2
:1003300000ED00E07C22000800BEFEE71EF0040F86
:100340000CBFEFF30880EFF309807146244A104791
:100350002DE9F04182B004468846084B5E6B9F6BE6
:100360009D6A074800F08CFFCDF800803B4632467E
:100370002946204600F0EEFF00BEFEE700ED00E05B
:100380008C2200081EF0040F0CBFEFF30880EFF37F
:1003900009807146134A10472DE9F04182B00446A6
:1003A0008846084B5E6B9F6B9D6A074800F068FFAC
:1003B000CDF800803B4632462946204600F0CAFF71
:1003C00000BEFEE700ED00E09822000800BEFEE758
:1003D00000BEFEE700BEFEE770470000D90200083D
:0C03E000510300089903000800BEFEE76E
:1003EC0028230008000000207800002028230008A3
:1003FC000000001000000010780000201C010020FC
:08040C000000001000000010C8
:1004200010B5044600F0D2FE064BA3FB0030800955
:1004300000F092F8002221464FF0FF3000F04AF819
:10044000002010BDD34D621008B50B4B1A6842F462
:1004500000721A601A6842F480621A601A6842F4E4
:1004600080721A60032000F017F80F20FFF7D8FF02
:1004700001F04AF9002008BD003C0240024A13681E
:1004800001331360704700BF7C000020014B1868E7
:10049000704700BF7C00002010B50446C31E042B2B
:1004A00003D9A421094800F0E1FE094AD36823F4E6
:1004B000E0631B041B0C240204F4E064234343F0B8
:1004C000BF6343F40033D36010BD00BF10200008A9
:1004D00000ED00E070B504460E4615460F2A03D91C
:1004E000BC211A4800F0C2FE0F2E03D9BD211748C7
:1004F00000F0BCFE164BDA68C2F30222C2F107011B
:10050000042928BF0421131D062B01D9033A00E05A
:100510000022012303FA01F101393140914003FA2D
:1005200002F2013A2A400A43002C06DA04F00F04D2
:100530001201D2B2074B1A5570BD1201D2B204F1AA
:10054000604404F5614484F8002370BD1020000865
:1005500000ED00E014ED00E00138B0F1807F0AD238
:10056000064B5860F021064A82F82310002098605C
:1005700007221A6070470120704700BF10E000E0BA
:1005800000ED00E010B50446042805D020B140F28B
:10059000B311084800F06AFE042C05D1064A13681E
:1005A00043F00403136010BD034A136823F00403EF
:1005B000136010BD1020000810E000E02DE9F047A6
:1005C00082B080460F46A34B984223D003F5806348
:1005D00098421FD003F5806398421BD003F58063D7
:1005E000984217D003F58063984213D003F58063D7
:1005F00098420FD003F5806398420BD003F58063D7
:10060000984207D003F58063984203D0C5219248F1
:1006100000F02CFE3B881BB9C6218F4800F026FE57
:100620007B68012B22D9112B20D0022B1ED0122B3C
:100630001CD08A4A934219D002F58012934215D0F9
:1006400002F58012934211D0A2F5F81293420DD018
:1006500002F58012934209D002F58012934205D030
:10066000032B03D0C7217C4800F000FEBB68022B9F
:1006700003D9C821784800F0F9FD00252AE10124BA
:10068000AC403E682640B44240F023817B68022B98
:1006900001D0122B4AD13B69C3B3092B36D0ABB37F
:1006A000A3B39BB393B3012B30D02FD0022B2DD00B
:1006B0002CD02BD0032B29D0042B27D026D025D00B
:1006C000052B23D022D0092B20D0062B1ED0092B9E
:1006D0001CD0072B1AD019D018D0082B16D015D043
:1006E00014D0092B12D011D00A2B0FD00ED00B2B07
:1006F0000CD00C2B0AD009D00D2B07D00C2B05D019
:100700000F2B03D0D921544800F0B0FDEA0808327D
:1007100058F8220005F0070399000F238B4020EAC8
:1007200003003B698B40034348F82230D8F800307F
:100730004FEA450A4FF0030909FA0AF96FEA090975
:1007400003EA09027B6803F0030303FA0AF3134385
:10075000C8F800307B685A1E012A03D9112B01D03A
:10076000122B1BD1FB68032B03D9EC213A4800F074
:100770007DFDD8F8083009EA0302FB6803FA0AF3A2
:100780001343C8F80830D8F8043023EA04047B681F
:10079000C3F30013AB401C43C8F80440D8F80C3036
:1007A00009EA0309BB6803FA0AF349EA0303C8F834
:1007B0000C307B6813F0805F00F08B80284B5A6C04
:1007C00042F480425A645B6C03F480430193019BC2
:1007D000A9088A1C234B53F8220005F003039B0051
:1007E0000F229A4020EA02001A4A904521D002F5D1
:1007F000806290451FD002F5806290451DD002F5C1
:10080000806290451BD002F58062904519D002F5B8
:100810008062904517D002F58062904515D002F5B0
:100820008062904513D002F5806290451CD1082269
:100830001BE0002219E0012217E0022215E003224A
:1008400013E0042211E005220FE006220DE007224A
:100850000BE000BF0000024044200008000011101F
:100860000038024000380140092202FA03F3034332
:1008700002311B4A42F821301A4B1A68F34302EA4C
:100880000301786810F4803F01D046EA0201154A5E
:100890001160526803EA0201786810F4003F01D049
:1008A00046EA02010F4A5160926803EA0201786841
:1008B00010F4801F01D046EA02010A4A9160D26812
:1008C0001340796811F4001F01D046EA0203054A7B
:1008D000D36001350F2D7FF6D2AE02B0BDE8F087B0
:1008E00000380140003C014070B5064615460C46F4
:1008F00021B940F2B111084800F0B8FC012D04D92B
:100900004FF4D971044800F0B1FC0DB1B46170BD71
:100910002404B46170BD00BF4420000830B583B02A
:10092000044603680F2B04D94FF48071B14800F0DE
:100930009DFC236813F0010F5FD06368012B06D97B
:10094000052B04D040F20511AA4800F08FFCAA4BF9
:100950009B6803F00C03042B0AD0A74B9B6803F0A1
:100960000C03082B0DD1A44B5B6813F4800F08D047
:10097000A14B1B6813F4003F3FD06368002B3CD1B0
:10098000F4E100229D4B1A70FFF780FD054607E059
:10099000FFF77CFD401B41F28833984200F2E8816A
:1009A000954B1B6813F4003FF2D12279934B1A70D8
:1009B00063688BB1FFF76AFD054607E0FFF766FD48
:1009C000401B41F28833984200F2D4818A4B1B6865
:1009D00013F4003FF2D010E0FFF758FD054607E0A2
:1009E000FFF754FD401B41F28833984200F2C48166
:1009F000814B1B6813F4003FF2D1236813F0020F00
:100A00006AD0E368012B04D94FF4A371794800F050
:100A10002DFC23691F2B04D940F24711754800F0C3
:100A200025FC754B9B6813F00C0F0AD0724B9B682A
:100A300003F00C03082B1BD16F4B5B6813F4800F82
:100A400016D16D4B1B6813F0020F03D0E368012B26
:100A500040F094816848036823F0F8012369F82284
:100A600092FAA2F2B2FA82F293400B43036033E0AF
:100A7000E368FBB10122624B1A60FFF707FD0546F0
:100A800005E0FFF703FD401B642800F279815A4B13
:100A90001B6813F0020FF4D05748036823F0F801E5
:100AA0002369F82292FAA2F2B2FA82F293400B433F
:100AB000036011E00022524B1A60FFF7E7FC054685
:100AC00005E0FFF7E3FC401B642800F25B814A4B22
:100AD0001B6813F0020FF4D1236813F0080F2ED017
:100AE0006369012B04D940F28711424800F0BEFB34
:100AF000636993B10122434B1A60FFF7C7FC0546B7
:100B000005E0FFF7C3FC401B642800F23D813A4B2F
:100B10005B6F13F0020FF4D011E00022394B1A6022
:100B2000FFF7B4FC054605E0FFF7B0FC401B642866
:100B300000F22C81304B5B6F13F0020FF4D123686D
:100B400013F0040F71D0A368012B06D9052B04D034
:100B500040F2B111274800F089FB274B1A6C42F094
:100B600080521A641B6C03F080530193019B264A48
:100B7000136843F480731360FFF788FC054605E0B3
:100B8000FFF784FC401B642800F202811E4B1B68A7
:100B900013F4807FF4D000221C4B1A70FFF776FC10
:100BA000054607E0FFF772FC401B41F2883398428C
:100BB00000F2F080104B1B6F13F0020FF2D1227A7B
:100BC000124B1A70A3688BB1FFF760FC054607E073
:100BD000FFF75CFC401B41F28833984200F2DC8056
:100BE000054B1B6F13F0020FF2D01EE0FFF74EFC17
:100BF000054615E084200008003802400238024013
:100C000000004742800E47420070004070380240AA
:100C1000FFF73CFC401B41F28833984200F2BE8053
:100C2000654B1B6F13F0020FF2D1A369022B04D99D
:100C300040F2F511614800F019FBA369002B00F0A8
:100C4000AF805D4A926802F00C02082A00F0AA8088
:100C5000022B78D1E3693BB1B3F5800F04D04FF498
:100C6000FF71564800F002FB236A3F2B04D940F283
:100C7000FF11524800F0FAFA636AC03BF02B04D926
:100C80004FF400714D4800F0F1FAA36A022B0AD02C
:100C9000042B08D0062B06D0082B04D040F20121EB
:100CA000464800F0E3FAE36A043B0B2B04D940F218
:100CB0000221424800F0DAFA0022414B1A60FFF7A5
:100CC000E5FB054604E0FFF7E1FB401B64286BD819
:100CD000394B1B6813F0007FF5D1E169236A194392
:100CE000636A47F6C07292FAA2F2B2FA82F29340B5
:100CF0001943A36A5B085A1E4FF4403393FAA3F3D7
:100D0000B3FA83F302FA03F30B43E26A4FF0706124
:100D100091FAA1F1B1FA81F18A401343264A536056
:100D20000122274B1A60FFF7B1FB044604E0FFF7EE
:100D3000ADFB001B642839D81F4B1B6813F0007FE4
:100D4000F5D0002035E000221D4B1A60FFF79EFB16
:100D5000044604E0FFF79AFB001B642828D8164BD2
:100D60001B6813F0007FF5D1002022E0012020E075
:100D700003201EE003201CE003201AE0012018E0FD
:100D8000032016E0032014E0032012E0032010E00B
:100D900003200EE003200CE003200AE0032008E01B
:100DA000002006E0012004E0032002E0032000E030
:100DB000032003B030BD00BF00380240842000088B
:100DC0006000474270B504460D460368013B0E2B98
:100DD00004D94FF41871944800F048FA072D04D94B
:100DE00040F26121904800F041FA904B1B6803F0FB
:100DF0000F039D4240F29880EAB28C4B1A701B6838
:100E000003F00F039D4240F06B81236813F0020F43
:100E10001DD0A368A3B1802B12D0902B10D0A02B93
:100E20000ED0B02B0CD0C02B0AD0D02B08D0E02B8A
:100E300006D0F02B04D040F277217B4800F016FA60
:100E40007B498B6823F0F002A36813438B6023680F
:100E500013F0010F00F002816368032B04D940F204
:100E60007E21714800F002FA6268012A05D1704BB8
:100E70001B6813F4003F0FD134E1931E012B05D8FA
:100E80006B4B1B6813F0007F06D12DE1684B1B688C
:100E900013F0020F00F02A8165498B6823F00303E9
:100EA00013438B60FFF7F2FA05466368012B0FD1FD
:100EB00007E0FFF7EBFA401B41F28833984200F25B
:100EC00017815B4B9B6803F00C03042BF1D1C5E049
:100ED000022B0FD107E0FFF7D9FA401B41F288330C
:100EE000984200F20781524B9B6803F00C03082BD9
:100EF000F1D1B3E0032B11D14D4B9B68FFF7C6FA3C
:100F0000401B41F288339842F6D9F5E0FFF7BEFA6C
:100F1000401B41F28833984200F2F080444B9B68BA
:100F200013F00C0FF2D199E0236813F0020F1DD0DB
:100F3000A368A3B1802B12D0902B10D0A02B0ED081
:100F4000B02B0CD0C02B0AD0D02B08D0E02B06D071
:100F5000F02B04D040F2D121334800F087F9344916
:100F60008B6823F0F002A36813438B60236813F0AF
:100F7000010F6BD06368032B04D94FF436712A48F4
:100F800000F074F96268012A05D1294B1B6813F43B
:100F9000003F0FD1B4E0931E012B05D8244B1B68F2
:100FA00013F0007F06D1ADE0214B1B6813F0020F58
:100FB00000F0AA801E498B6823F0030313438B6063
:100FC000FFF764FA06466368012B0FD107E0FFF7CD
:100FD0005DFA801B41F28833984200F29780144BEF
:100FE0009B6803F00C03042BF1D12FE0022B0FD1EF
:100FF00007E0FFF74BFA801B41F28833984200F27A
:1010000087800B4B9B6803F00C03082BF1D11DE08C
:10101000032B16D1064B9B68FFF738FA801B41F271
:1010200088339842F6D975E084200008003C0240DD
:1010300000380240FFF72AFA801B41F288339842B9
:101040006AD8374B9B6813F00C0FF3D1EAB2354BDB
:101050001A701B6803F00F039D425FD1236813F0E1
:10106000040F19D0E36883B1B3F5805F0DD0B3F5F9
:10107000A05F0AD0B3F5C05F07D0B3F5E05F04D03E
:1010800040F23231284800F0F1F825498B6823F40A
:10109000E052E36813438B60236813F0080F1AD003
:1010A000236983B1B3F5805F0DD0B3F5A05F0AD09B
:1010B000B3F5C05F07D0B3F5E05F04D040F239313B
:1010C000194800F0D3F8164A936823F46043216965
:1010D00043EAC10393600F20FFF7A2F9002070BD1F
:1010E000012070BD012070BD012070BD012070BDC8
:1010F000032070BD032070BD032070BD032070BDB0
:10110000012070BD012070BD012070BD032070BDA5
:10111000032070BD032070BD032070BD012070BD91
:1011200000380240003C024084200008244B9B68A9
:1011300003F00C03042B3FD0082B01D0214870474B
:1011400010B41F4B586800F03F005B6813F4800F29
:1011500010D01D4BB3FBF0F0194B5A6847F6C07125
:101160000A4091FAA1F3B3FA83F322FA03F303FBE3
:1011700000F310E0134BB3FBF0F0114B5A6847F645
:10118000C07402EA040194FAA4F2B2FA82F221FADB
:1011900002F202FB00F30A4A506800F440324FF4B6
:1011A000403090FAA0F0B0FA80F022FA00F001305E
:1011B0004000B3FBF0F001E00348704710BC7047FB
:1011C000003802400024F40000127A0008B5FFF74E
:1011D000ADFF084B9B6803F0F002F02393FAA3F3F2
:1011E000B3FA83F322FA03F3034AD35CD840034BE8
:1011F000186008BD00380240742000080C00002070
:10120000FEE700BF08B5034800F052F80120FFF7E1
:10121000F7FF00BFB420000808B50D4B1B6813B9D9
:101220000C4A0B4B1A600A4B1A68C31C23F00303C9
:10123000134409498B4206D900F068FA0C23036075
:101240004FF0FF3008BD02490B60104608BD00BFDB
:10125000800000201C01002000FC0120012303600D
:10126000014B0B60704700BF0400002008B50A4620
:101270000146024800F004F8FFF7C4FF0821000807
:101280000FB400B583B004AB53F8042B0193802155
:10129000064800F075FA002803DD0146034800F017
:1012A00049F803B05DF804EB04B0704788000020F3
:1012B00010B5044600F030FA0146204600F03AF836
:1012C0000121024800F036F810BD00BFF8210008E7
:1012D0002DE9F04385B004460F46435C13BB04255B
:1012E00028462146ABBE04461FE03546102E28BFD7
:1012F0001025002306E014F8011B04AA1A4402F882
:10130000101C0133AB42F6D304AA1344002203F8A5
:10131000102CE9464FF0040840464946ABBE8046D3
:10132000761B00E00E46002EDFD1384605B0BDE842
:10133000F08300BF08B5FFF7CBFF08BD08B500F08C
:1013400091F8024B024A9A6008BD00BF00ED00E030
:1013500000000008F8B504460D4617461E4626480C
:10136000FFF78EFF21682548FFF78AFF6168244850
:10137000FFF786FFA1682348FFF782FFE168224854
:10138000FFF77EFF21692148FFF77AFF6169204856
:10139000FFF776FFA1691F48FFF772FFE1691E485A
:1013A000FFF76EFF1D48FFF76BFF29461C48FFF74C
:1013B00067FF1C4CE16A1C48FFF762FF216B1B486A
:1013C000FFF75EFFE16B1A48FFF75AFF15F0800F39
:1013D00003D039461748FFF753FF15F4004F03D0E9
:1013E00031461548FFF74CFF1448FFF749FF0699AF
:1013F0001348FFF745FFF8BD602100087021000881
:101400008021000890210008A0210008B0210008D8
:10141000C0210008D0210008E0210008F0210008C8
:10142000FC21000800ED00E00C2200081C2200084E
:101430002C2200083C2200084C2200085C220008F4
:101440006422000883691A888A4207D10268033A35
:10145000012A05D8023383610120704700207047BC
:10146000002070470C4B1A6842F001021A600021FC
:1014700099601A6822F0847222F480321A60074A56
:101480005A601A6822F480221A60D9604FF0006214
:10149000034B9A60704700BF0038024010300024B0
:1014A00000ED00E0224B9B6803F00C03042B07D0F7
:1014B000082B09D0002B2DD11E4A1F4B1A602CE09F
:1014C0001E4A1D4B1A6028E0194B5A685B6803F0EE
:1014D0003F0312F4800F09D0184AB2FBF3F2144B09
:1014E0005B68C3F3881303FB02F208E0114AB2FB06
:1014F000F3F30F4A5168C1F3881101FB03F20C4B5F
:101500005B68C3F3014301335B00B2FBF3F30A4AA8
:10151000136002E0074A084B1A60054B9B68C3F34F
:101520000313074AD15C044A1368CB401360704729
:10153000003802400024F4000C00002000127A0061
:10154000A822000830B587B00C4A136B43F008039B
:1015500013634FF4805501950123029302220492F4
:101560000393074C01A92046FFF728F800222946DB
:101570002046FFF7B9F907B030BD00BF0038024080
:10158000000C02400A4B1B680A4AA2FB03239B097A
:10159000013BB3F1807F09D2074A5360F021074B2A
:1015A00083F823100023936007231360704700BF64
:1015B0000C000020D34D621010E000E000ED00E0D0
:1015C000034B1860024B1B68002BFBD1704700BF18
:1015D00014010020034B1B681BB1024A1368013B36
:1015E000136070471401002008B5FEF747FFFFF7AE
:1015F000F1FF08BD10B594B0214B1A6C42F0805237
:101600001A641B6C03F080530193019B1D4B1A68F5
:1016100042F480421A601B6803F480430293029BE9
:101620000123089309934FF480030F930823109329
:101630004FF4A873119302241294072313930E946A
:1016400008A8FFF76BF90F23039304940023059375
:101650004FF4A05306934FF480530793052103A83A
:10166000FFF7B0FBFFF7B2FD074BA3FB003080098B
:10167000FEF772FF0420FEF785FF14B010BD00BF17
:101680000038024000700040D34D621008B5FEF7EC
:10169000DBFEFFF7AFFFFFF705FF08BD10B51548EC
:1016A000FFF706FE144B19681448FFF7E9FDFFF732
:1016B00069FFFFF747FF002401224FF480511048D3
:1016C000FFF712F914B94FF47A7001E040F2EE20FE
:1016D000FFF776FF00224FF480510948FFF704F925
:1016E000FA20FFF76DFF013421460648FFF7C8FDD9
:1016F000E2E700BFB82200080C000020CC2200085E
:10170000000C0240E4220008704700BF014B18683B
:10171000704700BF70000020034613F8012B002A19
:10172000FBD1181A0138704730B5141E05469BB01E
:10173000184604DA8B232B604FF0FF301DE04FF486
:101740000273ADF80C3014BF04F1FF33234602934B
:1017500005934FF6FF7300910491ADF80E300246E9
:101760001E9B6946284600F073F8431CBCBF8B23C0
:101770002B6014B1009B00221A701BB030BD00001A
:1017800007B5009313460A46014603480068FFF771
:10179000CBFF03B05DF804FB700000202DE9F0479B
:1017A0008E689E4282460C46914698463ED88A896B
:1017B00012F4906F3AD0256809696F1A656902239F
:1017C00005EB450595FBF3F57B1C43449D4238BF73
:1017D0001D4653050FD5294600F086FB064698B1F5
:1017E0003A46216900F014FBA38923F4906343F087
:1017F0008003A38113E02A4600F0CAFB064670B9B5
:101800002169504600F02AFB0C23CAF80030A38956
:1018100043F04003A3814FF0FF30BDE8F08726611D
:1018200065613E44ED1B2660A5604646464528BFDF
:10183000464632464946206800F0F5FAA3689B1BED
:10184000A36023681E4426600020BDE8F0870000E6
:101850002DE9F04F9DB0804603938B891C060D4601
:1018600016460DD50B695BB9402100F03DFB2860A1
:10187000286118B90C23C8F80030CDE040236B6113
:101880000023099320238DF82930DFF89CB1302301
:101890008DF82A3037463C4614F8013B1BB9B7EBAC
:1018A000060910D003E0252BF9D02746F3E74B4675
:1018B000324629464046FFF771FF013000F0A7800D
:1018C000099B4B4409933B78002B00F0A080002338
:1018D0004FF0FF3204930793059206938DF853302F
:1018E0001A930126052221784E4800F041FA671C20
:1018F000049B38B14B4A801A06FA00F01843049052
:101900003C46EFE7D90644BF20228DF853201A0742
:1019100044BF2B228DF8532022782A2A03D0079A1D
:1019200000210A200BE0039A111D12680391002A7E
:1019300010DA524243F00200079204900BE027466F
:1019400001343B78303B092B03D800FB02320121E4
:10195000F5E701B107923B782E2B1ED17B782A2B1D
:101960000AD1039B1A1D1B680392002BB8BF4FF0CE
:10197000FF330237059310E000230593781C1946C6
:101980000A24074601303A78303A092A03D804FB82
:1019900001210123F5E703B105910322397822489B
:1019A00000F0E6F940B14023CBEB000003FA00F071
:1019B000049B18430490013739781C488DF828108F
:1019C00006227E1C00F0D4F988B1194B33B9039B71
:1019D000073323F007030833039314E003AB0093AA
:1019E0002A46144B04A94046AFF3008007E003AB3E
:1019F00000932A460F4B04A9404600F093F8B0F13B
:101A0000FF3F824603D0099B5344099342E7AB89C9
:101A10005B0601D4099801E04FF0FF301DB0BDE82E
:101A2000F08F00BFF2220008F8220008FC22000814
:101A3000000000009D1700082DE9F04791461F4661
:101A40000A698B68DDF820809342B8BF1346C9F855
:101A5000003091F8432006460C4612B10133C9F814
:101A600000302368990642BFD9F800300233C9F824
:101A70000030256815F0060510D104F1190A07E0B9
:101A80000123524639463046C04701301AD001354D
:101A9000E368D9F800209B1A9D42F1DB94F84330AB
:101AA0002268003318BF012392060FD5E1185A1C93
:101AB000302081F84300224494F8451082F8431006
:101AC000023303E04FF0FF30BDE8F08704F143023A
:101AD00039463046C0470130F4D02268D9F800506A
:101AE000E36802F00602042A08BF5D1B2269A368AE
:101AF0000CBF25EAE57500259342C4BF9B1AED187B
:101B00004FF000091A344D4509D0012322463946C9
:101B10003046C0470130D5D009F10109F3E7002074
:101B2000BDE8F0872DE9F04317460A7E85B06E2A9E
:101B3000984606460C460C9B01F1430E00F0AE8021
:101B400011D8632A22D009D8002A00F0BB80582A75
:101B500040F0CA8081F84520834955E0642A1ED0B0
:101B6000692A1CD0C0E0732A00F0B08009D86F2A1F
:101B70002ED0702A40F0B8800A6842F020020A6035
:101B80003EE0752A24D0782A3AD0ADE01A6801F1F7
:101B90004205111D1960136884F84230A8E02168DD
:101BA0001A6811F0800F02D0111D196008E011F0C1
:101BB000400F02F10401196002D0B2F9003000E0D8
:101BC0001368002B3CDA2D225B4284F8432037E077
:101BD00021681A6811F0800F02D0111D196007E00A
:101BE00011F0400F02F10401196001D0138800E0E8
:101BF0001368227E5C496F2A14BF0A2208221BE068
:101C000078225A4984F845202268186812F0800F1B
:101C100000F104051D6003D1550601D5038800E0DD
:101C20000368D00744BF42F0200222601BB922683B
:101C300022F0200222601022002084F8430001E0FC
:101C400049490A226568A560002D08DB206820F05C
:101C5000040020602BB9002D7DD175460CE0002BCF
:101C600079D07546B3FBF2F002FB1033CB5C05F87C
:101C7000013D03460028F5D1082A0BD12368DA0775
:101C800008D5236962689A42DEBF302305F8013C1B
:101C900005F1FF35C5EB0E0323612EE008681A68D5
:101CA000496910F0800F03D0101D1860136808E018
:101CB00010F0400F02F104001860136801D0198081
:101CC00000E0196000232361754616E01A68111DB3
:101CD0001960156862680021284600F049F808B1CB
:101CE000401B6060636804E004F1420584F8422010
:101CF00001232361002384F84330CDF800803B4664
:101D000003AA21463046FFF797FE013002D14FF07B
:101D1000FF3026E023692A4639463046C047013065
:101D2000F5D023689B0710D5002504F1190907E0B9
:101D300001234A4639463046C0470130E7D00135D5
:101D4000E368039A9B1A9D42F2DBE068039B98428A
:101D5000B8BF184605E00B7884F8423004F142051C
:101D60008AE705B0BDE8F0830323000814230008C8
:101D700001F0FF01102A2BDB10F0070F08D010F83C
:101D8000013B013A8B422DD010F0070F42B3F6D140
:101D9000F0B441EA012141EA014122F007047FF059
:101DA00000070023F0E80256083C85EA010586EAB0
:101DB000010685FA47F5A3FA87F586FA47F6A5FAEC
:101DC00087F68EB9EED1F0BC01F0FF0102F00702F8
:101DD00032B110F8013B013A83EA010313B1F8D1A3
:101DE0000020704701387047002D06BF3546033884
:101DF000073815F0010F07D1013015F4807F02BFBD
:101E0000013015F4C03F0130F0BC0138704700BF0D
:101E100010B5431E0A44914204D011F8014B03F857
:101E2000014FF8E710BD884210B501EB020301D85D
:101E3000421E0BE09842FBD28118D21AD34204D042
:101E400013F8014D01F8014DF8E710BD994204D097
:101E500011F8014B02F8014FF8E710BD30B5002929
:101E60003ED051F8042C0B1F1E49002AB8BF9B1806
:101E70000A680C4612B95A600B6030BD9A420ED9FE
:101E800019685818824204BF106852685A6004BF2B
:101E900009181960236030BD994203D80A46516879
:101EA0000029F9D1146815199D420AD11B682344F1
:101EB000D0188142136013D10868034413604B6843
:101EC0000DE002D90C23036030BD18681C18A14234
:101ED00004BF0C684968596004BF0019186053605A
:101EE00030BD00BF0C01002070B5CD1C25F00305EE
:101EF00008350C2D38BF0C25002D064603DA0C23BF
:101F00003360002070BDA942F9D81F4B1C681A46E7
:101F10002146A1B10B685B1B0ED40B2B03D90B60C0
:101F2000CC18CD501EE08C420DBF63684B686360D7
:101F3000136018BF0C4615E00C464968E9E7134CDE
:101F400023681BB9304600F049F820602946304626
:101F500000F044F8431CD2D0C41C24F00304A04277
:101F60000AD1256004F10B00231D20F00700C31ADD
:101F700009D05A42E25070BD211A304600F02EF8C6
:101F80000130EED1BBE770BD0C010020080100203C
:101F9000F8B5074615460E4621B91146BDE8F8408A
:101FA000FFF7A2BF1AB9FFF759FF2846F8BD00F0A6
:101FB00025F885420ED929463846FFF795FF044695
:101FC00050B131462A46FFF723FF31463846FFF726
:101FD00045FF01E03046F8BD2046F8BD38B5064C57
:101FE0000023054608462360FFF716F9431C02D17B
:101FF000236803B12B6038BD1001002051F8040C98
:102000000028BEBF091851F8043CC01804387047B6
:102010002E2E2F73797374656D2F7372632F737403
:102020006D333266342D68616C2F73746D33326694
:102030003478785F68616C5F636F727465782E6363
:10204000000000002E2E2F73797374656D2F73724C
:10205000632F73746D333266342D68616C2F737423
:102060006D3332663478785F68616C5F6770696F72
:102070002E630000000000000102030401020304BB
:10208000060708092E2E2F73797374656D2F7372EE
:10209000632F73746D333266342D68616C2F7374E3
:1020A0006D3332663478785F68616C5F7263632E7B
:1020B0006300000061626F727428292C20657869C2
:1020C00074696E672E2E2E002C2066756E637469FF
:1020D0006F6E3A2000000000617373657274696F5F
:1020E0006E2022257322206661696C65643A206641
:1020F000696C6520222573222C206C696E65202571
:1021000064257325730A00006173736572745F70D0
:102110006172616D2829206661696C65643A206688
:10212000696C6520222573222C206C696E65202540
:10213000640A00006D61696E28617267633D256401
:102140002C20617267763D5B000000002C200000AF
:1021500022257322000000005D293B0A00000000D8
:10216000537461636B206672616D653A0A0000000A
:10217000205230203D2020253038580A0000000031
:10218000205231203D2020253038580A0000000020
:10219000205232203D2020253038580A000000000F
:1021A000205233203D2020253038580A00000000FE
:1021B00020523132203D20253038580A00000000DE
:1021C000204C52203D2020253038580A00000000C5
:1021D000205043203D2020253038580A00000000C0
:1021E00020505352203D20253038580A000000006E
:1021F0004653522F4641523A0A00000020434653AC
:1022000052203D2020253038580A000020484653EF
:1022100052203D2020253038580A000020444653E3
:1022200052203D2020253038580A000020414653D6
:1022300052203D2020253038580A0000204D4D46C0
:102240004152203D20253038580A000020424641A6
:1022500052203D2020253038580A00004D69736314
:102260000A000000204C522F4558435F52455455F8
:10227000524E3D20253038580A0000005B486172FC
:10228000644661756C745D0A000000005B42757302
:102290004661756C745D0A005B55736167654661E4
:1022A000756C745D0A000000000000000000000072
:1022B000010203040607080948656C6C6F2041524F
:1022C0004D20576F726C64210000000053797374C5
:1022D000656D20636C6F636B3A20257520487A0A20
:1022E000000000005365636F6E642025750A0000CE
:1022F0004300232D302B2000686C4C006566674539
:10230000464700303132333435363738394142436D
:10231000444546003031323334353637383961621E
:05232000636465660026
:102328007856341284000020000000000024F400D5
:102338000000000000000000000000000000000095
:102348000000000000000000000000000000000085
:10235800F02200080000000000000000000000005B
:102368000000000000000000000000000000000065
:102378000000000000000000000000000000000055
:102388000000000000000000000000000000000045
:08239800100000203254769879
:040000050800018965
:00000001FF
