:020000040800F2
:10000000000002205D02000861020008630200088F
:10001000A1020008A3020008B902000800000000C5
:10002000000000000000000000000000CF020008F7
:10003000D102000800000000D3020008AD0D000846
:10004000E9020008E9020008E9020008E9020008E4
:10005000E9020008E9020008E9020008E9020008D4
:10006000E9020008E9020008E9020008E9020008C4
:10007000E9020008E9020008E9020008E9020008B4
:10008000E9020008E9020008E9020008E9020008A4
:10009000E9020008E9020008E9020008E902000894
:1000A000E9020008E9020008E9020008E902000884
:1000B000E9020008E9020008E9020008E902000874
:1000C000E9020008E9020008E9020008E902000864
:1000D000E9020008E9020008E9020008E902000854
:1000E000E9020008E9020008E9020008E902000844
:1000F000E9020008E9020008E9020008E902000834
:10010000E9020008E9020008E9020008E902000823
:10011000E9020008E9020008E9020008E902000813
:10012000E9020008E9020008E9020008E902000803
:10013000E9020008E9020008E9020008E9020008F3
:10014000E9020008E9020008E9020008E9020008E3
:10015000E9020008E9020008E9020008E9020008D3
:10016000E9020008E9020008E9020008E9020008C3
:10017000E9020008E9020008E902000800000000A6
:10018000E9020008E902000807B500F03BFD294B31
:10019000294883420BD293E806000C3353F8044CF1
:1001A0009442F6D951F8045B42F8045BF8E7234B1C
:1001B000234900208B4208D253F8082B53F8044CF3
:1001C000A242F7D242F8040BFAE700F041FE01A97F
:1001D000684600F00FFD1B4C1B4BE41AA4100025D1
:1001E0001E46AC4204DD56F8253098470135F8E745
:1001F000164B174CE41AA41000251E46AC4204DD31
:1002000056F8253098470135F8E79DE8030000F0DF
:1002100029FE104C104BE41A0646A4101D46002C73
:1002200004DD013C55F824309847F8E7304600F0EB
:10023000DDFC00BFEC020008040300080403000812
:100240001403000814030008140300081403000832
:100250001403000814030008140300081E48004794
:10026000FEE71EF0040F0CBFEFF30880EFF30980E8
:1002700071461A4A104710B5084C236B9B070BD5E3
:10028000E36A002B08DA4BF6AB6100F0D9FC18B139
:100290004FF00043E36210BDFEE700BF00ED00E059
:1002A000FEE71EF0040F0CBFEFF30880EFF30980A8
:1002B00071460B4A1047FEE71EF0040F0CBFEFF328
:1002C0000880EFF309807146064A1047FEE7FEE713
:1002D000FEE7FEE77047000089010008770200088A
:0A02E000B7020008CD020008FEE797
:1002EC00CC0E0008000000200C000020CC0E0008F2
:1002FC0000000010000000100C000020180000206E
:08030C000000001000000010C9
:1003140010B5044600F04EFC4FF47A73B0FBF3F0D2
:1003240000F076F8002221464FF0FF3000F03CF850
:10033400002010BD08B50B4B1A6842F400721A6015
:100344001A6842F480621A601A6842F480721A6071
:10035400032000F017F80F20FFF7DAFF00F0A2FDEA
:10036400002008BD003C0240024A136801331360B8
:10037400704700BF0C000020014B1868704700BF95
:100384000C000020074AD36823F4E0631B041B0C11
:1003940043F0BF63000243F4003300F4E06003431E
:1003A400D360704700ED00E0174BDB68C3F3022312
:1003B40030B5C3F107041D1D042C28BF0424062DE9
:1003C4004FF0010505FA04F404F1FF348CBF033B3C
:1003D40000230C409C4005FA03F3013B1A4000281B
:1003E40042EA04024FEA0212AFBF00F1604000F09B
:1003F4000F00064BD2B2A5BF00F56140D2B21A5429
:1004040080F8002330BD00BF00ED00E014ED00E0F3
:100414000138B0F1807F0AD2064B074A5860F021B8
:1004240082F823100020072298601A607047012088
:10043400704700BF10E000E000ED00E0044B1A68D4
:1004440004280CBF42F0040222F004021A60704730
:1004540010E000E02DE9F04F6C4E0B68DFF8B4C1FA
:10046400DFF8B48185B0B646019300230122019CD4
:100474009A4032EA040440F0C1804C6824F0100928
:10048400B9F1020F14D14FEAD30A00EB8A0A03F040
:10049400070BDAF820704FEA8B0B0F2505FA0BF5E2
:1004A40027EA05050F6907FA0BF72F43CAF82070EE
:1004B4004FEA430A0325076805FA0AF5ED4304F0F9
:1004C400030B2F400BFA0AFB09F1FF394BEA07072C
:1004D400B9F1010F076012D8876805EA0709CF68E8
:1004E40007FA0AF747EA090787604768C4F300195F
:1004F40027EA020709FA03F949EA07074760C768C8
:100504003D408F6807FA0AF73D43C560E50075D59D
:10051400DCF8445045F48045CCF84450DCF84450B1
:1005240023F0030707F1804705F4804507F59C375E
:10053400039503F0030A039DD7F808B04FF00F09A1
:100544004FEA8A0A09FA0AF52BEA0509304DA8424E
:1005540020D005F58065A8421ED005F58065A84227
:100564001CD005F58065A8421AD005F58065A8421F
:1005740018D0404518D005F50065A84216D005F5F9
:100584008065A84214D005F58065A84214BF0925EA
:1005940008250EE000250CE001250AE0022508E00C
:1005A400032506E0042504E0052502E0062500E015
:1005B400072505FA0AF545EA0905BD603568D743FC
:1005C40014F4803F0CBF3D401543CEF80050DEF8D4
:1005D400045014F4003F0CBF3D4015437560B568EA
:1005E40014F4801F0CBF3D401543CEF80850DEF8CC
:1005F4000C50A40254BF3D401543F5600133102B49
:100604007FF434AF05B0BDE8F08F00BF003C01407B
:1006140000000240003802400014024002B90904FC
:100624008161704703682DE9F341DE07044603D472
:1006340023689D074CD49CE08A4B9A6802F00C0214
:10064400042A07D09A6802F00C02082A0BD15B68CE
:10065400580208D5834B1B689903E9D56368002BBE
:10066400E6D1012064E1804D7E4E00232B70FFF71C
:1006740083FE41F28838074633689A0306D5FFF7AC
:100684007BFEC01B4045F7D9032051E123792B7031
:10069400636873B1FFF770FE724D064641F2883706
:1006A4002B689B03C4D4FFF767FE801BB842F7D9BD
:1006B400EAE7FFF761FE6B4D064641F288372B6887
:1006C4009803B5D5FFF758FE801BB842F7D9DBE78E
:1006D400644B9A6812F00C0F07D09A6802F00C026F
:1006E400082A17D15B68590214D45E4B1A68920722
:1006F40002D5E268012AB4D11A68F82191FAA1F16D
:100704002069B1FA81F100FA01F122F0F8020A43FA
:100714001A602EE0E268554BEAB101221A60FFF735
:100724002BFE504D06462B684E489F0705D4FFF715
:1007340023FE801B6428F6D9A6E70368F82292FA00
:10074400A2F22169B2FA82F201FA02F223F0F8036A
:10075400134303600DE01A60FFF70EFE414D064699
:100764002B68990705D5FFF707FE801B6428F7D986
:100774008AE723681A0703D423685B074ED51FE072
:1007840062693B4B72B101221A60FFF7F5FD354DEA
:1007940006466B6F9F07EFD4FFF7EEFD801B6428BE
:1007A400F7D971E71A60FFF7E7FD2E4D06466B6F28
:1007B4009807E1D5FFF7E0FD801B6428F7D963E7CC
:1007C400284B2C4D1A6C42F080521A641B6C03F0B7
:1007D40080530193019B2B6843F480732B60FFF7D4
:1007E400CBFD06462B68D9051BD5234D1D4E002392
:1007F4002B70FFF7C1FD41F288380746336F9A0723
:1008040015D4237A2B70A368EBB1FFF7B5FD154D12
:10081400064641F288372B6F9B070ED5A2696ABB47
:100824006BE0FFF7A9FD801B6428DBD92CE7FFF7F9
:10083400A3FDC01B4045E1D926E7FFF79DFD801BC2
:10084400B842E8D920E7FFF797FD064D064641F286
:1008540088372B6F9807E1D5FFF78EFD801BB842D0
:10086400F7D911E70038024002380240000047423D
:10087400800E474200700040703802402E4DAB6835
:1008840003F00C03082B3FF4ECAE2C4E0023022A99
:10089400336041D1FFF770FD80462B68264F9901E4
:1008A4002DD447F6C07292FAA2F24FF44033B2FA52
:1008B40082FE93FAA3F34FF07062B3FA83F592FACF
:1008C400A2F2E069236AB2FA82F1626A034302FA8D
:1008D4000EF243EA0200A36A5A08013A02FA05F347
:1008E400E26A03438A4013437B6001233360FFF7CA
:1008F40043FD04463B689A0108D5002018E0FFF741
:100904003BFDC8EB00006428C7D9BDE6FFF734FD02
:10091400001B6428EED9B7E6FFF72EFD04462B68CA
:100924009B01EAD5FFF728FD001B6428F7D9ABE645
:1009340002B0BDE8F08100BF0038024060004742C9
:100944007B4B1A6802F00F028A422DE9F0410546FA
:100954000E4674D2CAB21A701B6803F00F03994290
:1009640002D00120BDE8F08101688F0706D57148E7
:10097400836823F0F002AB6813438360CE070BD483
:1009840029684C0740F1C3806A48836823F4E05225
:10099400EB6813438360BAE06B68664A012B03D1AA
:1009A400126812F4003F08E0991E0129126802D867
:1009B40012F0007F01E012F0020FD2D05D4CA26869
:1009C40022F003021343A360FFF7D6FC6B68012BEC
:1009D40006460ED141F28837A36803F00C03042BBA
:1009E400CED0FFF7C9FC801BB842F5D90320BDE87F
:1009F400F081022B0CD141F28837A36803F00C0379
:100A0400082BBDD0FFF7B8FC801BB842F5D9EDE741
:100A1400032B08D141F28835A368FFF7ADFC801B96
:100A2400A842F9D9E2E741F28837A36813F00C0F22
:100A3400A6D0FFF7A1FC801BB842F6D9D6E701681F
:100A4400880706D53B48836823F0F002AB6813435C
:100A54008360CA0709D4364BF2B21A701B6803F0DC
:100A64000F039E427FF47DAF8AE76B68314A012B06
:100A740003D1126812F4003F08E0991E012912689C
:100A840002D812F0007F01E012F0020F3FF469AFC8
:100A9400284CA26822F003021343A360FFF76CFC06
:100AA4006B68012B07460CD141F28838A36803F028
:100AB4000C03042BCFD0FFF75FFCC01B4045F5D9D6
:100AC40094E7022B0CD141F28838A36803F00C039D
:100AD400082BC0D0FFF750FCC01B4045F5D985E773
:100AE400032B08D141F28835A368FFF745FCC01BEE
:100AF400A842F9D97AE741F28838A36813F00C0FB9
:100B0400A9D0FFF739FCC01B4045F6D96EE70B07A7
:100B140007D5084A2969936823F4604343EAC1036B
:100B240093600F20FFF7F4FB0020BDE8F08100BFC5
:100B3400003C0240003802401B498B6803F00C0360
:100B4400042B2CD0082B2CD148684B6800F03F00B4
:100B540013F4800F47F6C0724B6892FAA2F247F67C
:100B6400C071B2FA82F201EA030121FA02F114BF60
:100B74000E4A0F4AB2FBF0F00B4A00FB01F3526835
:100B84004FF4403090FAA0F002F44032B0FA80F012
:100B940022FA00F001304000B3FBF0F07047034844
:100BA40070470348704700BF0038024000127A00C3
:100BB4000024F40008B5FFF7BFFF084BF0229B6840
:100BC40092FAA2F2B2FA82F203F0F003D340044A9A
:100BD400D35CD840034B186008BD00BF0038024006
:100BE400AA0E00080800002008B500F015F800005F
:100BF40001230360014B0B60704700BF000000201D
:100C040008B500F029F8024B024A9A6008BD00BFFB
:100C140000ED00E000000008BFF34F8F0549064BCC
:100C2400CA6802F4E0621343CB60BFF34F8F00BF86
:100C3400FDE700BF00ED00E00400FA0583691A88AF
:100C44008A4207D10268033A012A03D80233836136
:100C540001207047002070470C4B1A68002142F0B5
:100C640001021A6099601A6822F0847222F48032B8
:100C74001A60074A5A601A6822F480221A60D960FE
:100C8400044B4FF000629A60704700BF0038024086
:100C94001030002400ED00E0174A1849936803F06F
:100CA4000C03042B03D0082B03D0154B18E0154B71
:100CB40016E05068536810F4800F03F03F03506847
:100CC40014BF104A0E4AB2FBF3F30B4A5268C2F344
:100CD4000142C0F38810013243435200B3FBF2F3E4
:100CE4000B60054B084A9B68C3F30313D25C0B6883
:100CF400D3400B60704700BF00380240080000205A
:100D04000024F40000127A00BA0E000830B50D4A2F
:100D14000D4C136B87B043F0080313634FF48055F5
:100D24000123022201A92046029304920393019510
:100D3400FFF790FB002229462046FFF76FFC07B01F
:100D440030BD00BF00380240000C02400A4B4FF493
:100D54007A721B68B3FBF2F3013BB3F1807F09D2D3
:100D6400064A5360064BF02183F823100023936056
:100D740007231360704700BF0800002010E000E064
:100D840000ED00E0024B18601A68002AFCD170479D
:100D940014000020034B1A6812B11A68013A1A6051
:100DA400704700BF1400002008B5FFF7DDFABDE866
:100DB4000840FFF7EFBF0000224B10B51A6C42F059
:100DC40080521A641B6C94B003F080530193019B0E
:100DD4001D4B1A6842F480421A601B6803F4804376
:100DE4000293029B0123089309934FF480030F930A
:100DF400082310934FF4A8730224119308A807231F
:100E0400139312940E94FFF70DFC0F230393002306
:100E140005934FF4A0530521069303A84FF4805380
:100E240007930494FFF78CFDFFF7C4FE4FF47A7325
:100E3400B0FBF3F0FFF7ECFA0420FFF7FFFA14B06D
:100E440010BD00BF003802400070004008B5FFF735
:100E540071FAFFF7B1FFBDE80840FFF71DBF0000BE
:100E640010B5FFF773FFFFF751FF002401224FF481
:100E740080510B48FFF7D2FB002C40F2EE2008BF54
:100E84004FF47A70FFF77EFF00224FF4805104483C
:100E9400FFF7C4FBFA20FFF775FF0134E6E700BF54
:100EA400000C02407047000000000102030401022C
:100EB4000304060708090000000000000000010206
:060EC40003040607080903
:0C0ECC0010000020000000000024F400D2
:040000050800018965
:00000001FF
